{
  "contractName": "VotingByToken",
  "abi": [
    {
      "constant": true,
      "inputs": [],
      "name": "totalTokens",
      "outputs": [
        {
          "name": "",
          "type": "uint256"
        }
      ],
      "payable": false,
      "stateMutability": "view",
      "type": "function"
    },
    {
      "constant": true,
      "inputs": [],
      "name": "tokenPrice",
      "outputs": [
        {
          "name": "",
          "type": "uint256"
        }
      ],
      "payable": false,
      "stateMutability": "view",
      "type": "function"
    },
    {
      "constant": true,
      "inputs": [
        {
          "name": "",
          "type": "uint256"
        }
      ],
      "name": "candidateList",
      "outputs": [
        {
          "name": "",
          "type": "bytes32"
        }
      ],
      "payable": false,
      "stateMutability": "view",
      "type": "function"
    },
    {
      "constant": true,
      "inputs": [],
      "name": "balanceTokens",
      "outputs": [
        {
          "name": "",
          "type": "uint256"
        }
      ],
      "payable": false,
      "stateMutability": "view",
      "type": "function"
    },
    {
      "inputs": [
        {
          "name": "candidates",
          "type": "bytes32[]"
        },
        {
          "name": "_totalTokens",
          "type": "uint256"
        },
        {
          "name": "_tokenPrice",
          "type": "uint256"
        }
      ],
      "payable": false,
      "stateMutability": "nonpayable",
      "type": "constructor"
    },
    {
      "payable": true,
      "stateMutability": "payable",
      "type": "fallback"
    },
    {
      "constant": false,
      "inputs": [],
      "name": "buy",
      "outputs": [
        {
          "name": "",
          "type": "uint256"
        }
      ],
      "payable": true,
      "stateMutability": "payable",
      "type": "function"
    },
    {
      "constant": false,
      "inputs": [
        {
          "name": "_to",
          "type": "address"
        }
      ],
      "name": "transferToAccount",
      "outputs": [],
      "payable": false,
      "stateMutability": "nonpayable",
      "type": "function"
    },
    {
      "constant": true,
      "inputs": [],
      "name": "tokenSold",
      "outputs": [
        {
          "name": "",
          "type": "uint256"
        }
      ],
      "payable": false,
      "stateMutability": "view",
      "type": "function"
    },
    {
      "constant": true,
      "inputs": [
        {
          "name": "candidateName",
          "type": "bytes32"
        }
      ],
      "name": "indexOfCandidate",
      "outputs": [
        {
          "name": "",
          "type": "uint256"
        }
      ],
      "payable": false,
      "stateMutability": "view",
      "type": "function"
    },
    {
      "constant": false,
      "inputs": [
        {
          "name": "candidateName",
          "type": "bytes32"
        },
        {
          "name": "voteToken",
          "type": "uint256"
        }
      ],
      "name": "VotingFor",
      "outputs": [],
      "payable": false,
      "stateMutability": "nonpayable",
      "type": "function"
    },
    {
      "constant": true,
      "inputs": [
        {
          "name": "tokenUsedCandidate",
          "type": "uint256[]"
        }
      ],
      "name": "totalUsedCandidate",
      "outputs": [
        {
          "name": "",
          "type": "uint256"
        }
      ],
      "payable": false,
      "stateMutability": "pure",
      "type": "function"
    },
    {
      "constant": true,
      "inputs": [
        {
          "name": "candidateName",
          "type": "bytes32"
        }
      ],
      "name": "getCandidateCount",
      "outputs": [
        {
          "name": "",
          "type": "uint256"
        }
      ],
      "payable": false,
      "stateMutability": "view",
      "type": "function"
    },
    {
      "constant": true,
      "inputs": [
        {
          "name": "user",
          "type": "address"
        }
      ],
      "name": "voterDetails",
      "outputs": [
        {
          "name": "",
          "type": "uint256"
        },
        {
          "name": "",
          "type": "uint256[]"
        }
      ],
      "payable": false,
      "stateMutability": "view",
      "type": "function"
    }
  ],
  "bytecode": "0x608060405234801561001057600080fd5b50604051610e50380380610e5083398101806040528101908080518201929190602001805190602001909291908051906020019092919050505082600490805190602001906100609291906100bf565b5081600081905550816001819055508060028190555033600660006101000a81548173ffffffffffffffffffffffffffffffffffffffff021916908373ffffffffffffffffffffffffffffffffffffffff160217905550505050610137565b828054828255906000526020600020908101928215610101579160200282015b828111156101005782518290600019169055916020019190600101906100df565b5b50905061010e9190610112565b5090565b61013491905b80821115610130576000816000905550600101610118565b5090565b90565b610d0a806101466000396000f3006080604052600436106100ba576000357c0100000000000000000000000000000000000000000000000000000000900463ffffffff168063519ee19e146100bc5780635938750d146100e75780637e1c0c09146101865780637ff9b596146101b1578063925ba9fd146101dc578063a6f2ae3a14610256578063a9dd741314610274578063b13c744b146102af578063b84ad68f146102f8578063cf93dc2e1461033d578063e4494a0f14610380578063ecd098b0146103ab575b005b3480156100c857600080fd5b506100d16103f0565b6040518082815260200191505060405180910390f35b3480156100f357600080fd5b50610128600480360381019080803573ffffffffffffffffffffffffffffffffffffffff1690602001909291905050506103fe565b6040518083815260200180602001828103825283818151815260200191508051906020019060200280838360005b83811015610171578082015181840152602081019050610156565b50505050905001935050505060405180910390f35b34801561019257600080fd5b5061019b6104e2565b6040518082815260200191505060405180910390f35b3480156101bd57600080fd5b506101c66104e8565b6040518082815260200191505060405180910390f35b3480156101e857600080fd5b50610240600480360381019080803590602001908201803590602001908080602002602001604051908101604052809392919081815260200183836020028082843782019150505050505091929192905050506104ee565b6040518082815260200191505060405180910390f35b61025e610537565b6040518082815260200191505060405180910390f35b34801561028057600080fd5b506102ad6004803603810190808035600019169060200190929190803590602001909291905050506106ac565b005b3480156102bb57600080fd5b506102da60048036038101908080359060200190929190505050610a48565b60405180826000191660001916815260200191505060405180910390f35b34801561030457600080fd5b506103276004803603810190808035600019169060200190929190505050610a6b565b6040518082815260200191505060405180910390f35b34801561034957600080fd5b5061037e600480360381019080803573ffffffffffffffffffffffffffffffffffffffff169060200190929190505050610b35565b005b34801561038c57600080fd5b50610395610c5b565b6040518082815260200191505060405180910390f35b3480156103b757600080fd5b506103da6004803603810190808035600019169060200190929190505050610c61565b6040518082815260200191505060405180910390f35b600060015460005403905090565b60006060600360008473ffffffffffffffffffffffffffffffffffffffff1673ffffffffffffffffffffffffffffffffffffffff16815260200190815260200160002060010154600360008573ffffffffffffffffffffffffffffffffffffffff1673ffffffffffffffffffffffffffffffffffffffff168152602001908152602001600020600201808054806020026020016040519081016040528092919081815260200182805480156104d257602002820191906000526020600020905b8154815260200190600101908083116104be575b5050505050905091509150915091565b60005481565b60025481565b6000806000809150600090505b835181101561052d57838181518110151561051257fe5b906020019060200201518201915080806001019150506104fb565b8192505050919050565b6000806002543481151561054757fe5b04905060015481111515156105c4576040517f08c379a000000000000000000000000000000000000000000000000000000000815260040180806020018281038252601f8152602001807f6d757374206265206c657373206571756c207468616e2062616c616e6365730081525060200191505060405180910390fd5b33600360003373ffffffffffffffffffffffffffffffffffffffff1673ffffffffffffffffffffffffffffffffffffffff16815260200190815260200160002060000160006101000a81548173ffffffffffffffffffffffffffffffffffffffff021916908373ffffffffffffffffffffffffffffffffffffffff16021790555080600360003373ffffffffffffffffffffffffffffffffffffffff1673ffffffffffffffffffffffffffffffffffffffff16815260200190815260200160002060010160008282540192505081905550806001600082825403925050819055508091505090565b6000806000806106bb86610c61565b93507fffffffffffffffffffffffffffffffffffffffffffffffffffffffffffffffff8414151515610755576040517f08c379a00000000000000000000000000000000000000000000000000000000081526004018080602001828103825260188152602001807f6d75737420626520696e2063616e6469646174654c697374000000000000000081525060200191505060405180910390fd5b6000600360003373ffffffffffffffffffffffffffffffffffffffff1673ffffffffffffffffffffffffffffffffffffffff16815260200190815260200160002060020180549050141561083057600092505b60048054905083101561082f57600360003373ffffffffffffffffffffffffffffffffffffffff1673ffffffffffffffffffffffffffffffffffffffff1681526020019081526020016000206002016000908060018154018082558091505090600182039060005260206000200160009091929091909150555082806001019350506107a8565b5b6108c9600360003373ffffffffffffffffffffffffffffffffffffffff1673ffffffffffffffffffffffffffffffffffffffff1681526020019081526020016000206002018054806020026020016040519081016040528092919081815260200182805480156108bf57602002820191906000526020600020905b8154815260200190600101908083116108ab575b50505050506104ee565b915081600360003373ffffffffffffffffffffffffffffffffffffffff1673ffffffffffffffffffffffffffffffffffffffff168152602001908152602001600020600101540390508481101515156109b0576040517f08c379a00000000000000000000000000000000000000000000000000000000081526004018080602001828103825260298152602001807f6f7574507574546f6b656e206d75737420626520677265617465207468616e2081526020017f766f7465546f6b656e000000000000000000000000000000000000000000000081525060400191505060405180910390fd5b846005600088600019166000191681526020019081526020016000206000828254019250508190555084600360003373ffffffffffffffffffffffffffffffffffffffff1673ffffffffffffffffffffffffffffffffffffffff16815260200190815260200160002060020185815481101515610a2957fe5b9060005260206000200160008282540192505081905550505050505050565b600481815481101515610a5757fe5b906000526020600020016000915090505481565b600080610a7783610c61565b90507fffffffffffffffffffffffffffffffffffffffffffffffffffffffffffffffff8114151515610b11576040517f08c379a00000000000000000000000000000000000000000000000000000000081526004018080602001828103825260188152602001807f6d75737420626520696e2063616e6469646174654c697374000000000000000081525060200191505060405180910390fd5b60056000846000191660001916815260200190815260200160002054915050919050565b3373ffffffffffffffffffffffffffffffffffffffff16600660009054906101000a900473ffffffffffffffffffffffffffffffffffffffff1673ffffffffffffffffffffffffffffffffffffffff16141515610bfa576040517f08c379a000000000000000000000000000000000000000000000000000000000815260040180806020018281038252601d8152602001807f74616e73666572206574686572206d757374206265206d616e6167657200000081525060200191505060405180910390fd5b8073ffffffffffffffffffffffffffffffffffffffff166108fc3073ffffffffffffffffffffffffffffffffffffffff16319081150290604051600060405180830381858888f19350505050158015610c57573d6000803e3d6000fd5b5050565b60015481565b600080600090505b600480549050811015610cb457600481815481101515610c8557fe5b90600052602060002001546000191683600019161415610ca757809150610cd8565b8080600101915050610c69565b7fffffffffffffffffffffffffffffffffffffffffffffffffffffffffffffffff91505b509190505600a165627a7a7230582074b764caefaa8535bbe66bd8ec0fce554e09f74f67b98aeff05e2a3992cbeac80029",
  "source": "pragma solidity ^0.4.22;\r\n\r\ncontract VotingByToken {\r\n    \r\n    \r\n    uint public totalTokens;\r\n    uint public balanceTokens;\r\n    uint public tokenPrice;\r\n    \r\n    struct voter{\r\n        address account;\r\n        uint tokenBought;\r\n        uint[] tokenUsedCandidate;\r\n    }\r\n    \r\n    \r\n    mapping(address=>voter) voterInfo;\r\n    \r\n    bytes32[] public candidateList;\r\n    mapping(bytes32=>uint) mappingCanidateCount;\r\n    \r\n    address admin;\r\n    \r\n    constructor(bytes32[] candidates , uint _totalTokens,uint _tokenPrice) public {\r\n        candidateList = candidates;\r\n        totalTokens = _totalTokens;\r\n        balanceTokens = _totalTokens;\r\n        tokenPrice = _tokenPrice;\r\n        admin = msg.sender;  // 0x1111   0x3333\r\n    }\r\n    \r\n    function buy() payable public returns(uint) {\r\n        uint tokenNum = msg.value / tokenPrice;\r\n        require(tokenNum<=balanceTokens,\"must be less equl than balances\");\r\n        voterInfo[msg.sender].account = msg.sender;\r\n        voterInfo[msg.sender].tokenBought += tokenNum;\r\n        balanceTokens -= tokenNum;\r\n        return tokenNum;\r\n    }\r\n    \r\n    function transferToAccount(address _to) public {\r\n        require(admin == msg.sender,\"tansfer ether must be manager\");\r\n        //require(_to==0x0,\"0x0 is error address\");\r\n        _to.transfer( address(this).balance );\r\n    }\r\n    \r\n    function tokenSold() view public returns(uint) {\r\n        return totalTokens-balanceTokens;\r\n    }\r\n    \r\n    function indexOfCandidate(bytes32 candidateName) view public returns(uint){\r\n        \r\n        for(uint i=0;i<candidateList.length;i++){\r\n            if(candidateName==candidateList[i]){\r\n                return i;\r\n            }\r\n        }\r\n        \r\n        \r\n        return uint(-1); //false \r\n    }\r\n    \r\n    \r\n    function VotingFor(bytes32 candidateName,uint voteToken) public {\r\n        uint index = indexOfCandidate(candidateName);\r\n        require(index != uint(-1),\"must be in candidateList\");\r\n        if( voterInfo[msg.sender].tokenUsedCandidate.length == 0 ){\r\n            for(uint i=0;i<candidateList.length;i++){\r\n                voterInfo[msg.sender].tokenUsedCandidate.push(0);\r\n            }\r\n        }\r\n        uint outPutToken = totalUsedCandidate(voterInfo[msg.sender].tokenUsedCandidate);\r\n        uint ableTokenCount = voterInfo[msg.sender].tokenBought-outPutToken;\r\n        require(ableTokenCount>=voteToken,\"outPutToken must be greate than voteToken\");\r\n        mappingCanidateCount[candidateName] += voteToken;\r\n        \r\n        voterInfo[msg.sender].tokenUsedCandidate[index] += voteToken;\r\n    }\r\n\r\n    \r\n    function totalUsedCandidate(uint[] tokenUsedCandidate) pure public returns(uint) {\r\n        uint totalUsed = 0 ;\r\n        for(uint i=0;i<tokenUsedCandidate.length;i++){\r\n            totalUsed += tokenUsedCandidate[i];\r\n        }\r\n        return totalUsed;\r\n    }\r\n    \r\n    function getCandidateCount(bytes32 candidateName) view public returns(uint) {\r\n        uint index = indexOfCandidate(candidateName);\r\n        require(index != uint(-1),\"must be in candidateList\");\r\n        return mappingCanidateCount[candidateName];\r\n    }\r\n    \r\n    \r\n    function voterDetails(address user) view public returns (uint,uint[]) {\r\n        return (voterInfo[user].tokenBought,voterInfo[user].tokenUsedCandidate);\r\n    }\r\n    \r\n\r\n    function() payable public{}\r\n    \r\n}",
  "sourcePath": "/Users/yu/Desktop/huolian/ethereumLearn/web3/tokenVoterPerfect/contracts/VotingByToken.sol",
  "compiler": {
    "name": "solc",
    "version": "0.4.25+commit.59dbf8f1.Emscripten.clang"
  },
  "schemaVersion": "2.0.2",
  "updatedAt": "2021-05-08T13:10:29.441Z"
}